:020000040800F2
:10000000002800208D1300081D130008231300088A
:10001000291300082F130008351300080000000002
:100020000000000000000000000000003B1300087A
:100030004713000800000000531300085F13000876
:10004000D5130008D5130008D5130008D5130008F0
:10005000D5130008D5130008D5130008D5130008E0
:10006000D5130008D5130008D5130008D5130008D0
:10007000D5130008D5130008D5130008D5130008C0
:10008000D5130008D5130008D5130008D5130008B0
:10009000D5130008D5130008D5130008D5130008A0
:1000A000D5130008D5130008D5130008D513000890
:1000B0006D130008D513000800000000D5130008D8
:1000C000D51300080000000000000000D513000850
:1000D00000000000D5130008D51300080000000040
:1000E000D5130008D5130008D51300080000000040
:1000F0000000000000000000000000000000000000
:0C01000000000000000000005FF808F1A3
:10010C0010B5054C237833B9044B13B10448AFF345
:10011C0000800123237010BD40000020000000006F
:10012C001C2A000808B5034B1BB103490348AFF365
:10013C00008008BD00000000440000201C2A0008BC
:10014C0080B483B000AF7860044A7B68012142F828
:10015C00231000BF0C37BD4680BC70479C000020AC
:10016C0080B483B000AF7860094A7B6852F82330C2
:10017C00012B06D1064A7B68002142F8231001238B
:10018C0000E0002318460C37BD4680BC704700BF0A
:10019C009C00002080B582B000AF00237B6071E032
:1001AC003C4A7B6852F823203B497B6841F823206A
:1001BC003A4A7B6852F8232036497B6841F8232061
:1001CC00374A7B6852F8232036497B6831F8133064
:1001DC001946104601F0E4FB034619462F4A7B688A
:1001EC0042F823102B4A7B6852F823202A497B685B
:1001FC0051F823309A4242D1264A7B6852F8232088
:10020C0026497B6851F823309A4238D1264A7B68BC
:10021C0052F8232021497B6851F823309A4211D09F
:10022C001E4A7B6852F823201F497B6841F8232023
:10023C001A4A7B6852F82330002B20D17868FFF7DC
:10024C007FFF1CE0194A7B6852F823305A1E17496D
:10025C007B6841F82320154A7B6852F82330002B29
:10026C000DD1124A7B68C82142F823100B4A7B68D7
:10027C0052F82330002B02D17868FFF761FF7B68BE
:10028C0001337B607B68022B8ADD00BF00BF08371F
:10029C00BD4680BDA800002090000020C0000020BA
:1002AC00080000200000002084000020B400002082
:1002BC0080B584B000AFF860B9603B601346FB803A
:1002CC00FB68092B00F2D08101A252F823F000BF89
:1002DC00050300085D030008B50300080D040008C1
:1002EC0065040008BD040008150500086D0500082C
:1002FC00C50500081D060008FB8800221946B868D1
:10030C0001F065FB3B8B00221946386801F05FFB5E
:10031C003B8C00221946F86901F059FB3B8D0022F9
:10032C001946786A01F053FB3B8E00221946F86A95
:10033C0001F04DFB3B8F00221946786B01F047FB17
:10034C00B7F8403001221946F86B01F040FB8CE104
:10035C00FB8801221946B86801F039FB3B8B00225F
:10036C001946386801F033FB3B8C00221946F869BA
:10037C0001F02DFB3B8D01221946786A01F027FB19
:10038C003B8E01221946F86A01F021FB3B8F0122BA
:10039C001946786B01F01BFBB7F840300122194667
:1003AC00F86B01F014FB60E1FB8800221946B86879
:1003BC0001F00DFB3B8B00221946386801F007FB5E
:1003CC003B8C01221946F86901F001FB3B8D0022A0
:1003DC001946786A01F0FBFA3B8E00221946F86A3E
:1003EC0001F0F5FA3B8F01221946786B01F0EFFA18
:1003FC00B7F8403000221946F86B01F0E8FA34E106
:10040C00FB8800221946B86801F0E1FA3B8B002208
:10041C001946386801F0DBFA3B8C00221946F86962
:10042C0001F0D5FA3B8D00221946786A01F0CFFA1B
:10043C003B8E01221946F86A01F0C9FA3B8F012262
:10044C001946786B01F0C3FAB7F840300022194610
:10045C00F86B01F0BCFA08E1FB8801221946B86878
:10046C0001F0B5FA3B8B00221946386801F0AFFA5F
:10047C003B8C00221946F86901F0A9FA3B8D012248
:10048C001946786A01F0A3FA3B8E01221946F86AE4
:10049C0001F09DFA3B8F00221946786B01F097FA18
:1004AC00B7F8403000221946F86B01F090FADCE006
:1004BC00FB8800221946B86801F089FA3B8B0122AF
:1004CC001946386801F083FA3B8C00221946F8690A
:1004DC0001F07DFA3B8D00221946786A01F077FA1B
:1004EC003B8E01221946F86A01F071FA3B8F00220B
:1004FC001946786B01F06BFAB7F8403000221946B8
:10050C00F86B01F064FAB0E0FB8800221946B86879
:10051C0001F05DFA3B8B01221946386801F057FA5D
:10052C003B8C00221946F86901F051FA3B8D0022F0
:10053C001946786A01F04BFA3B8E00221946F86A8C
:10054C0001F045FA3B8F00221946786B01F03FFA17
:10055C00B7F8403000221946F86B01F038FA84E005
:10056C00FB8800221946B86801F031FA3B8B002257
:10057C001946386801F02BFA3B8C00221946F869B1
:10058C0001F025FA3B8D01221946786A01F01FFA19
:10059C003B8E01221946F86A01F019FA3B8F0122B1
:1005AC001946786B01F013FAB7F84030012219465E
:1005BC00F86B01F00CFA58E0FB8800221946B86879
:1005CC0001F005FA3B8B00221946386801F0FFF95F
:1005DC003B8C00221946F86901F0F9F93B8D002299
:1005EC001946786A01F0F3F93B8E00221946F86A35
:1005FC0001F0EDF93B8F00221946786B01F0E7F919
:10060C00B7F8403000221946F86B01F0E0F92CE005
:10061C00FB8800221946B86801F0D9F93B8B0022FF
:10062C001946386801F0D3F93B8C00221946F86959
:10063C0001F0CDF93B8D00221946786A01F0C7F91B
:10064C003B8E01221946F86A01F0C1F93B8F00225A
:10065C001946786B01F0BBF9B7F840300022194607
:10066C00F86B01F0B4F900E000BF00BF1037BD46D5
:10067C0080BD00BF80B58EB00CAF786040230A936C
:10068C000E4B0993202308930C4B079310230693CE
:10069C000A4B059308230493084B039304230293FA
:1006AC00064B019302230093044B01220349786803
:1006BC00FFF7FEFD0837BD4680BD00BF000C0140B2
:1006CC0080B582B000AF78607B685A4203F00303B8
:1006DC0002F0030258BF53427B607B68032B00F28D
:1006EC00838001A252F823F0050700084107000897
:1006FC007D070008B90700083E4B1B681846FFF73A
:10070C00B9FF00224FF480513B4801F060F90122FF
:10071C004FF40051384801F05AF901224FF480414E
:10072C00354801F054F901224FF40041324801F0F0
:10073C004EF95AE02F4B5B681846FFF79BFF0122DE
:10074C004FF480512C4801F042F900224FF4005133
:10075C00294801F03CF901224FF48041264801F070
:10076C0036F901224FF40041234801F030F93CE006
:10077C00204B9B681846FFF77DFF01224FF48051F8
:10078C001D4801F024F901224FF400511A4801F0E0
:10079C001EF900224FF48041174801F018F901228C
:1007AC004FF40041144801F012F91EE0114BDB68C4
:1007BC001846FFF75FFF01224FF480510E4801F0FD
:1007CC0006F901224FF400510B4801F000F9012207
:1007DC004FF48041084801F0FAF800224FF4004130
:1007EC00054801F0F4F800E000BF00BF0837BD4633
:1007FC0080BD00BF200000200008014080B400AF85
:10080C00164B1B680B2B08D1154B5B68144AD36035
:10081C00134B1B68124A93601CE0114B5B68104A27
:10082C00D360104B1968104B83FB01239A10CB1724
:10083C00D21A13469B0013445B00CA1A084B5A6029
:10084C00084B1B68084A82FB03129210DB17D31A61
:10085C00034A936000BFBD4680BC70476400002013
:10086C0020000020680000206766666680B582B0B4
:10087C0000AF634B1B68002B0FD04FF47A7000F065
:10088C0083FC604B1B68013B5E4A13605D4B5B68ED
:10089C00013B5C4A5360FFF7B1FF00237B60A5E08E
:1008AC00594A7B6852F82330013B032B00F29480A9
:1008BC0001A252F823F000BFD50800081F09000858
:1008CC0061090008A309000800F0FAFA4F4B1B68F5
:1008DC004FF47A7202FB03F30121184600F022FC5C
:1008EC004B4B1B684FF47A7202FB03F30021184642
:1008FC0000F018FC444B02225A60434B03221A604E
:10090C00424B1B683F4A5360414B1B683D4A136086
:10091C0069E0786800F036FAFFF770FF3D4A7B68B3
:10092C0052F82330002B59D0374A7B68032142F808
:10093C002310374B1B684FF47A7202FB03F3796870
:10094C00184600F0EFFB324B1A682E497B6841F8D1
:10095C00232043E0786800F069FAFFF74FFF2D4A37
:10096C007B6852F82330002B3AD0274A7B6804214D
:10097C0042F82310284B1B684FF47A7202FB03F3E6
:10098C007968184600F0CEFB234B1A681D497B682A
:10099C0041F8232024E0786800F01EFAFFF72EFFC0
:1009AC001C4A7B6852F82330002B1BD0164A7B68FC
:1009BC00022142F82310154B1B684FF47A7202FB8C
:1009CC0003F37968184600F0ADFB104B1A680D491B
:1009DC007B6841F8232005E000BF04E000BF02E083
:1009EC0000BF00E000BF7B6801337B607B68012B9C
:1009FC007FF756AF00BF00BF0837BD4680BD00BFB4
:100A0C0080000020200000205C000020140000204A
:100A1C001C0000206C0000201800002080B500AFE6
:100A2C007A4B1B68002B0AD0FA2000F097FB784B0E
:100A3C001B685A1C76490A601846FFF741FE754B35
:100A4C001B68013B0D2B00F2D58001A252F823F05C
:100A5C00950A0008010C0008010C0008010C0008A4
:100A6C00010C0008010C0008010C0008010C000826
:100A7C00010C0008010C0008C90A0008110B000841
:100A8C006B0B0008C70B000800F0CCF8624B01227E
:100A9C005A60614B01221A605E4B0B221A600121D5
:100AAC00642000F03FFB0021642000F03BFB64203D
:100ABC0000F054FB642000F067FBA4E0FFF7D6FEC7
:100ACC000020FFF74DFB0346002B00F09580514BA7
:100ADC000C221A60002141F2883000F023FB012126
:100AEC004FF4FA7000F01EFB00F0EAF900224021EE
:100AFC004A4800F06CFF00224FF40071474800F0A8
:100B0C0066FF79E000F08EF8454B1B68002B05D092
:100B1C00414B01225A603F4B0B221A600020FFF719
:100B2C001FFB0346002B69D03A4B0D221A600021A3
:100B3C0041F2883000F0F6FA01214FF4FA7000F01F
:100B4C00F1FA00F0BDF900228021344800F03FFF9B
:100B5C0000224FF48061314800F039FF4EE000F084
:100B6C007BF82F4B1B68002B05D02B4B01225A60B6
:100B7C00284B0B221A600020FFF7F2FA0346002BD9
:100B8C003ED0244B0E221A60002141F2883000F036
:100B9C00C9FA01214FF4FA7000F0C4FA00F090F990
:100BAC0000224FF480711D4800F011FF00224FF419
:100BBC0000611A4800F00BFF22E000F067F8184BB8
:100BCC001B68002B05D0144B01225A60114B0B22D1
:100BDC001A600020FFF7C4FA0346002B12D00D4B0D
:100BEC000B221A60002141F2883000F09BFA00F0D1
:100BFC0067F907E000BF06E000BF04E000BF02E0B9
:100C0C0000BF00E000BF00BF80BD00BF7800002027
:100C1C0030000020640000205C000020000801402F
:100C2C006C00002080B500AF094B5B68002B0DD029
:100C3C004021084800F0E3FE4FF40071054800F035
:100C4C00DEFE01214FF4FA7000F06CFA00BF80BD9B
:100C5C006C0000200008014080B500AF094B5B68B8
:100C6C00002B0DD08021084800F0C9FE4FF48061A4
:100C7C00054800F0C4FE01214FF4FA7000F052FA5E
:100C8C0000BF80BD6C0000200008014080B500AFA3
:100C9C000A4B5B68002B0ED04FF48071084800F0B3
:100CAC00AEFE4FF40061064800F0A9FE01214FF49E
:100CBC00FA7000F037FA00BF80BD00BF6C00002056
:100CCC000008014080B584B000AFF8607A601A4625
:100CDC000B467B8113463B817B8900221946F868C1
:100CEC0000F075FE3B8901221946786800F06FFE12
:100CFC00BB8B01221946B86900F069FE00BF1037A2
:100D0C00BD4680BD80B584B000AFF8607A601A46ED
:100D1C000B467B8113463B817B8901221946F8687F
:100D2C0000F055FE3B8900221946786800F04FFE12
:100D3C00BB8B01221946B86900F049FE00BF103781
:100D4C00BD4680BD80B584B000AFF8607A601A46AD
:100D5C000B467B8113463B817B8901221946F8683F
:100D6C0000F035FE3B8901221946786800F02FFE11
:100D7C00BB8B00221946B86900F029FE00BF103762
:100D8C00BD4680BD80B584B002AF78607B68002B17
:100D9C0003F00103B8BF5B42012B0BD14FF48073FE
:100DAC0001930C4B009380230A4A40210948FFF71A
:100DBC0089FF0CE04FF400630193064B00934FF452
:100DCC008063044A4FF400710248FFF77BFF083739
:100DDC00BD4680BD0008014080B584B002AF78608C
:100DEC007B68002B03F00103B8BF5B42012B0BD1D6
:100DFC004FF4807301930C4B009380230A4A4021DB
:100E0C000948FFF77FFF0CE04FF400630193064B9A
:100E1C0000934FF48063044A4FF400710248FFF7CB
:100E2C0071FF0837BD4680BD0008014080B584B015
:100E3C0002AF78607B68002B03F00103B8BF5B4204
:100E4C00012B0BD14FF4807301930C4B0093802337
:100E5C000A4A40210948FFF775FF0CE04FF4006384
:100E6C000193064B00934FF48063044A4FF40071D6
:100E7C000248FFF767FF0837BD4680BD00080140F8
:100E8C0080B584B000AFF8607A601A460B467B815F
:100E9C0013463B817B8901221946F86800F097FDC7
:100EAC003B8901221946786800F091FDBB8B012229
:100EBC001946B86900F08BFD00BF1037BD4680BDE8
:100ECC0080B582B002AF4FF4807301930B4B00934B
:100EDC0080230A4A40210948FFF7D2FF4FF40063F0
:100EEC000193064B00934FF48063044A4FF4007156
:100EFC000248FFF7C5FF00BFBD4680BD000801409A
:100F0C0080B500AF00F062FA00F012F800F098F82B
:100F1C0000F04AF8044801F0B7F9044B01221A60BA
:100F2C00FFF77CFDFCE700BFCC0000206400002034
:100F3C0080B590B000AF07F11803282200211846A5
:100F4C0001F05EFD3B1D00221A605A609A60DA6067
:100F5C001A610223BB610123BB621023FB620023D5
:100F6C007B6307F11803184600F062FD0346002B63
:100F7C0001D000F0D1F80F237B600023BB6000236D
:100F8C00FB6000233B6100237B613B1D0021184665
:100F9C0000F0CEFF0346002B01D000F0BDF800BFDF
:100FAC004037BD4680BD000080B586B000AF07F16C
:100FBC00080300221A605A609A60DA603B460022ED
:100FCC001A605A601D4B4FF080421A601B4B41F661
:100FDC003F725A60194B00229A60184B0922DA6052
:100FEC00164B00221A61154B00229A61134801F02E
:100FFC00FBF80346002B01D000F08EF84FF4805321
:10100C00BB6007F1080319460C4801F091FA03463E
:10101C00002B01D000F080F800233B6000237B60A4
:10102C003B461946054801F05DFC0346002B01D0F8
:10103C0000F072F800BF1837BD4680BDCC00002010
:10104C0080B586B000AF07F1080300221A605A6021
:10105C009A60DA60274B9B69264A43F0040393613C
:10106C00244B9B6903F004037B607B68214B9B69D9
:10107C00204A43F0080393611E4B9B6903F008035D
:10108C003B603B6800224FF6C0711B4800F09FFC90
:10109C0000227F21194800F09AFC0E23BB6000232C
:1010AC00FB6001233B6107F108031946124800F06D
:1010BC00FDFA4FF6C073BB600123FB6000233B615C
:1010CC0002237B6107F1080319460B4800F0EEFA86
:1010DC007F23BB600123FB6000233B6102237B6108
:1010EC0007F108031946054800F0E0FA00BF18376D
:1010FC00BD4680BD0010024000080140000C0140BC
:10110C0080B582B000AF786000F054F8FFF742F879
:10111C0000BF0837BD4680BD80B400AF72B600BFBB
:10112C00FEE7000080B483B000AF786039600A221B
:10113C007B6893FBF2F207493B6841F82320064A8F
:10114C003B68002142F8231000BF0C37BD4680BC21
:10115C00704700BF140100206C00002080B483B0E5
:10116C0000AF78600A227B6893FBF2F3044A1360A9
:10117C00044B00221A6000BF0C37BD4680BC704780
:10118C00740000207800002080B483B000AF786039
:10119C000A227B6893FBF2F3044A1360044B00228F
:1011AC001A6000BF0C37BD4680BC70477C00002025
:1011BC008000002080B483B000AF00237B601CE073
:1011CC00224A7B6852F82330002B13DD1F4A7B68C0
:1011DC0052F823305A1E1D497B6841F823201B4AC4
:1011EC007B6852F82330002B04DC194A7B68012100
:1011FC0042F823107B6801337B607B68012BDFDDB9
:10120C00144B1B68002B0BDD124B1B68013B114A66
:10121C001360104B1B68002B02DC0F4B01221A6071
:10122C000E4B1B68002B0BDD0C4B1B68013B0B4A58
:10123C0013600A4B1B68002B02DC094B01221A605D
:10124C0000BF0C37BD4680BC704700BF14010020A6
:10125C006C00002074000020780000207C0000202E
:10126C008000002080B485B000AF154B9B69144AF8
:10127C0043F001039361124B9B6903F00103BB60C4
:10128C00BB680F4BDB690E4A43F08053D3610C4BA8
:10129C00DB6903F080537B607B680A4B5B68FB6007
:1012AC00FB6823F0E063FB60FB6843F08063FB604A
:1012BC00044AFB68536000BF1437BD4680BC7047BE
:1012CC00001002400000014080B584B000AF78608F
:1012DC007B681B68B3F1804F13D10C4BDB690B4A55
:1012EC0043F00103D361094BDB6903F00103FB609D
:1012FC00FB68002200211C2000F0A1F91C2000F04A
:10130C00BAF900BF1037BD4680BD00BF00100240C7
:10131C0080B400AFFEE780B400AFFEE780B400AF4E
:10132C00FEE780B400AFFEE780B400AFFEE780B408
:10133C0000AF00BFBD4680BC704780B400AF00BF9B
:10134C00BD4680BC704780B400AF00BFBD4680BCBA
:10135C00704780B500AF00F07FF800BF80BD000083
:10136C0080B500AF024800F0DBFF00BF80BD00BFBE
:10137C00CC00002080B400AF00BFBD4680BC7047DD
:10138C00FFF7F8FF0B480C490C4A002302E0D45835
:10139C00C4500433C4188C42F9D3094A094C0023B5
:1013AC0001E013600432A242FBD301F005FBFFF70E
:1013BC00A7FD70470000002040000020602A0008B4
:1013CC004000002020010020FEE7000080B500AFA7
:1013DC00084B1B68074A43F010031360032000F00E
:1013EC0023F90F2000F008F8FFF73CFF0023184604
:1013FC0080BD00BF0020024080B582B000AF786095
:10140C00124B1A68124B1B7819464FF47A73B3FBC4
:10141C00F1F3B2FBF3F3184600F03BF90346002B53
:10142C0001D001230EE07B680F2B0AD800227968CB
:10143C004FF0FF3000F003F9064A7B68136000237D
:10144C0000E0012318460837BD4680BD340000205B
:10145C003C0000203800002080B400AF054B1B7806
:10146C001A46054B1B681344034A136000BFBD4664
:10147C0080BC70473C0000201C01002080B400AFF1
:10148C00024B1B681846BD4680BC70471C010020EF
:10149C0080B485B000AF78607B6803F00703FB6015
:1014AC000C4BDB68BB60BA684FF6FF031340BB60A4
:1014BC00FB681A02BB68134343F0BF6343F4003369
:1014CC00BB60044ABB68D36000BF1437BD4680BC08
:1014DC00704700BF00ED00E080B400AF044BDB6848
:1014EC001B0A03F007031846BD4680BC704700BFBB
:1014FC0000ED00E080B483B000AF0346FB7197F9B8
:10150C000730002B0BDBFB7903F01F02064997F920
:10151C0007305B09012000FA02F241F8232000BFDA
:10152C000C37BD4680BC704700E100E080B483B04E
:10153C0000AF03463960FB7197F90730002B0ADBCB
:10154C003B68DAB20C4997F907301201D2B20B445E
:10155C0083F800230AE03B68DAB20849FB7903F010
:10156C000F03043B1201D2B20B441A7600BF0C37A6
:10157C00BD4680BC704700BF00E100E000ED00E01C
:10158C0080B489B000AFF860B9607A60FB6803F092
:10159C000703FB61FB69C3F10703042B28BF04237A
:1015AC00BB61FB690433062B02D9FB69033B00E0EA
:1015BC0000237B614FF0FF32BB6902FA03F3DA437D
:1015CC00BB681A407B699A404FF0FF317B6901FA86
:1015DC0003F3D9437B680B40134318462437BD46AD
:1015EC0080BC704780B582B000AF78607B68013BEF
:1015FC00B3F1807F01D301230FE00A4A7B68013BE2
:10160C0053600F214FF0FF30FFF790FF054B002286
:10161C009A60044B07221A60002318460837BD460F
:10162C0080BD00BF10E000E080B582B000AF7860F4
:10163C007868FFF72DFF00BF0837BD4680BD80B529
:10164C0086B000AF0346B9607A60FB7300237B6100
:10165C00FFF742FF78617A68B9687869FFF790FF05
:10166C00024697F90F3011461846FFF75FFF00BF8F
:10167C001837BD4680BD80B582B000AF0346FB7104
:10168C0097F907301846FFF735FF00BF0837BD46FE
:10169C0080BD80B582B000AF78607868FFF7A2FF9C
:1016AC00034618460837BD4680BD000080B48BB099
:1016BC0000AF7860396000237B6200233B6248E115
:1016CC0001227B6A02FA03F3FB613B681B68FA692F
:1016DC001340BB61BA69FB699A4240F037813B68A1
:1016EC005B68A34A93425ED0A14A934275D8A14A43
:1016FC00934258D09F4A93426FD89F4A934252D0FC
:10170C009D4A934269D89D4A93424CD09B4A93423E
:10171C0063D89B4A934246D0994A93425DD8122B88
:10172C002AD8122B59D801A252F823F0B31700086B
:10173C008D1700089F170008E1170008E71700082D
:10174C00E7170008E7170008E7170008E717000875
:10175C00E7170008E7170008E7170008E717000865
:10176C00E7170008E7170008E7170008E717000855
:10177C0095170008A9170008824A934213D02CE051
:10178C003B68DB683B6229E03B68DB6804333B6207
:10179C0024E03B68DB6808333B621FE03B68DB6896
:1017AC000C333B621AE03B689B68002B02D104238C
:1017BC003B6213E03B689B68012B05D108233B621D
:1017CC007B68FA691A6109E008233B627B68FA6955
:1017DC005A6103E000233B6200E000BFBB69FF2BB2
:1017EC0001D87B6801E07B6804337B61BB69FF2B0C
:1017FC0002D87B6A9B0002E07B6A083B9B003B6142
:10180C007B691A680F213B6901FA03F3DB431A4029
:10181C00396A3B6901FA03F31A437B691A603B6826
:10182C005B6803F08053002B00F09080564B9B6953
:10183C00554A43F001039361534B9B6903F0010339
:10184C00BB60BB68514A7B6A9B08023352F8233059
:10185C00FB607B6A03F003039B000F2202FA03F385
:10186C00DB43FA681340FB607B68494A93420DD016
:10187C007B68484A934207D07B68474A934201D120
:10188C00022304E0032302E0012300E000237A6A30
:10189C0002F0030292009340FA681343FB603B4949
:1018AC007B6A9B080233FA6841F823203B685B682B
:1018BC0003F48013002B06D0384B9A683749BB6968
:1018CC0013438B6006E0354B9A68BB69DB433349A5
:1018DC0013408B603B685B6803F40013002B06D04D
:1018EC002E4BDA682D49BB691343CB6006E02B4BBA
:1018FC00DA68BB69DB4329491340CB603B685B6802
:10190C0003F40033002B06D0244B5A682349BB69DF
:10191C0013434B6006E0214B5A68BB69DB431F49FC
:10192C0013404B603B685B6803F48033002B06D09C
:10193C001A4B1A681949BB6913430B6006E0174B25
:10194C001A68BB69DB43154913400B607B6A013392
:10195C007B623B681A687B6A22FA03F3002B7FF4E4
:10196C00AFAE00BF00BF2C37BD4680BC704700BF78
:10197C000000321000003110000022100000211075
:10198C000000121000001110001002400000014075
:10199C0000080140000C014000100140000401400F
:1019AC0080B485B000AF78600B467B807B689A680A
:1019BC007B881340002B02D00123FB7301E0002332
:1019CC00FB73FB7B18461437BD4680BC704780B454
:1019DC0083B000AF78600B467B8013467B707B78BE
:1019EC00002B03D07A887B681A6103E07B881A0489
:1019FC007B681A6100BF0C37BD4680BC704780B451
:101A0C0085B000AF78600B467B807B68DB68FB6041
:101A1C007A88FB6813401A04FB68D9437B880B4017
:101A2C001A437B681A6100BF1437BD4680BC7047EF
:101A3C0080B586B000AF78607B68002B01D10123A4
:101A4C006CE27B681B6803F00103002B00F08780BD
:101A5C00924B5B6803F00C03042B0CD08F4B5B6830
:101A6C0003F00C03082B12D18C4B5B6803F480330E
:101A7C00B3F5803F0BD1894B1B6803F40033002B6B
:101A8C006CD07B685B68002B68D1012346E27B68D5
:101A9C005B68B3F5803F06D1804B1B687F4A43F4EB
:101AAC00803313602EE07B685B68002B0CD17B4B82
:101ABC001B687A4A23F480331360784B1B68774A8F
:101ACC0023F4802313601DE07B685B68B3F5A02FC3
:101ADC000CD1724B1B68714A43F4802313606F4B1B
:101AEC001B686E4A43F4803313600BE06B4B1B682E
:101AFC006A4A23F480331360684B1B68674A23F4EB
:101B0C00802313607B685B68002B13D0FFF7B6FC57
:101B1C00386108E0FFF7B2FC02463B69D31A642B2C
:101B2C0001D90323FAE15D4B1B6803F40033002B4E
:101B3C00F0D014E0FFF7A2FC386108E0FFF79EFC40
:101B4C0002463B69D31A642B01D90323E6E1534BBC
:101B5C001B6803F40033002BF0D100E000BF7B685E
:101B6C001B6803F00203002B63D04C4B5B6803F043
:101B7C000C03002B0BD0494B5B6803F00C03082BB8
:101B8C001CD1464B5B6803F48033002B16D1434BBE
:101B9C001B6803F00203002B05D07B681B69012B2B
:101BAC0001D00123BAE13D4B1B6823F0F8027B689E
:101BBC005B69DB00394913430B603AE07B681B69B6
:101BCC00002B20D0364B01221A60FFF757FC3861EE
:101BDC0008E0FFF753FC02463B69D31A022B01D9EC
:101BEC0003239BE12D4B1B6803F00203002BF0D069
:101BFC002A4B1B6823F0F8027B685B69DB002749E2
:101C0C0013430B6015E0264B00221A60FFF736FCDD
:101C1C00386108E0FFF732FC02463B69D31A022B0D
:101C2C0001D903237AE11D4B1B6803F00203002B3F
:101C3C00F0D17B681B6803F00803002B3AD07B685B
:101C4C009B69002B19D0174B01221A60FFF716FC69
:101C5C00386108E0FFF712FC02463B69D31A022BED
:101C6C0001D903235AE10D4B5B6A03F00203002BED
:101C7C00F0D0012000F09AFA1CE00A4B00221A6006
:101C8C00FFF7FCFB38610FE0FFF7F8FB02463B69FE
:101C9C00D31A022B08D9032340E100BF00100240E5
:101CAC0000004242800442429E4B5B6A03F00203F6
:101CBC00002BE9D17B681B6803F00403002B00F0B8
:101CCC00A6800023FB75974BDB6903F08053002B38
:101CDC000DD1944BDB69934A43F08053D361914B04
:101CEC00DB6903F08053BB60BB680123FB758E4B33
:101CFC001B6803F48073002B18D18B4B1B688A4A2A
:101D0C0043F480731360FFF7B9FB386108E0FFF709
:101D1C00B5FB02463B69D31A642B01D90323FDE0C2
:101D2C00814B1B6803F48073002BF0D07B68DB685D
:101D3C00012B06D17B4B1B6A7A4A43F001031362D9
:101D4C002DE07B68DB68002B0CD1764B1B6A754A47
:101D5C0023F001031362734B1B6A724A23F00403D2
:101D6C0013621CE07B68DB68052B0CD16D4B1B6A86
:101D7C006C4A43F0040313626A4B1B6A694A43F0D2
:101D8C00010313620BE0674B1B6A664A23F00103E5
:101D9C001362644B1B6A634A23F0040313627B686F
:101DAC00DB68002B15D0FFF769FB38610AE0FFF701
:101DBC0065FB02463B69D31A41F28832934201D942
:101DCC000323ABE0574B1B6A03F00203002BEED04E
:101DDC0014E0FFF753FB38610AE0FFF74FFB0246B4
:101DEC003B69D31A41F28832934201D9032395E01F
:101DFC004C4B1B6A03F00203002BEED1FB7D012B35
:101E0C0005D1484BDB69474A23F08053D3617B688B
:101E1C00DB69002B00F08180424B5B6803F00C0304
:101E2C00082B61D07B68DB69022B46D13F4B00222B
:101E3C001A60FFF723FB386108E0FFF71FFB02462F
:101E4C003B69D31A022B01D9032367E0354B1B687E
:101E5C0003F00073002BF0D17B681B6AB3F5803F55
:101E6C0008D1304B5B6823F400327B689B682D49AA
:101E7C0013434B602B4B5B6823F474127B68196A19
:101E8C007B685B6A0B43274913434B60274B01224A
:101E9C001A60FFF7F3FA386108E0FFF7EFFA024631
:101EAC003B69D31A022B01D9032337E01D4B1B6866
:101EBC0003F00073002BF0D02FE01C4B00221A60B3
:101ECC00FFF7DCFA386108E0FFF7D8FA02463B6905
:101EDC00D31A022B01D9032320E0124B1B6803F009
:101EEC000073002BF0D118E07B68DB69012B01D16A
:101EFC00012313E00B4B5B68FB60FB6803F480323F
:101F0C007B681B6A9A4206D1FB6803F470127B68EB
:101F1C005B6A9A4201D0012300E00023184618376F
:101F2C00BD4680BD0010024000700040600042427F
:101F3C0080B584B000AF786039607B68002B01D12C
:101F4C000123D0E06A4B1B6803F007033A689A42FE
:101F5C0010D9674B1B6823F0070265493B68134394
:101F6C000B60634B1B6803F007033A689A4201D07D
:101F7C000123B8E07B681B6803F00203002B20D020
:101F8C007B681B6803F00403002B05D0594B5B687E
:101F9C00584A43F4E06353607B681B6803F0080302
:101FAC00002B05D0534B5B68524A43F4605353608B
:101FBC00504B5B6823F0F0027B689B684D491343E0
:101FCC004B607B681B6803F00103002B40D07B68DF
:101FDC005B68012B07D1474B1B6803F40033002BC4
:101FEC0015D101237FE07B685B68022B07D1414B45
:101FFC001B6803F00073002B09D1012373E03D4BE8
:10200C001B6803F00203002B01D101236BE0394B59
:10201C005B6823F003027B685B68364913434B60B3
:10202C00FFF72CFAF8600AE0FFF728FA0246FB6883
:10203C00D31A41F28832934201D9032353E02D4B3A
:10204C005B6803F00C027B685B689B009A42EBD1E7
:10205C00274B1B6803F007033A689A4210D2244BB3
:10206C001B6823F0070222493B6813430B60204B8B
:10207C001B6803F007033A689A4201D0012332E04F
:10208C007B681B6803F00403002B08D0194B5B68BA
:10209C0023F4E0627B68DB68164913434B607B6872
:1020AC001B6803F00803002B09D0124B5B6823F468
:1020BC0060527B681B69DB000E4913434B6000F0D8
:1020CC0021F802460B4B5B681B0903F00F030A490E
:1020DC00CB5C22FA03F3094A1360094B1B681846C0
:1020EC00FFF78AF9002318461037BD4680BD00BFA4
:1020FC000020024000100240342A00083400002066
:10210C003800002080B487B000AF0023FB600023B0
:10211C00BB6000237B6100237B6000233B611E4B73
:10212C005B68FB60FB6803F00C03042B02D0082BEC
:10213C0003D027E0194B3B6127E0FB689B0C03F0B5
:10214C000F03174AD35C7B60FB6803F48033002BCE
:10215C0010D0114B5B685B0C03F00103114AD35C8C
:10216C00BB607B680D4A02FB03F2BB68B2FBF3F366
:10217C007B6104E07B680C4A02FB03F37B617B69A7
:10218C003B6102E0054B3B6100BF3B6918461C37C5
:10219C00BD4680BC704700BF0010024000127A00A0
:1021AC00442A0008542A000800093D0080B485B078
:1021BC0000AF78600A4B1B680A4AA2FB03235B0A38
:1021CC007A6802FB03F3FB6000BFFB685A1EFA60DF
:1021DC00002BF9D100BF00BF1437BD4680BC70473F
:1021EC0034000020D34D621080B582B000AF78600F
:1021FC007B68002B01D1012341E07B6893F83D30D3
:10220C00DBB2002B06D17B68002283F83C20786877
:10221C00FFF75AF87B68022283F83D207B681A6826
:10222C007B6804331946104600F06EFA7B68012275
:10223C0083F846207B68012283F83E207B680122CC
:10224C0083F83F207B68012283F840207B680122C1
:10225C0083F841207B68012283F842207B680122AD
:10226C0083F843207B68012283F844207B68012299
:10227C0083F845207B68012283F83D200023184613
:10228C000837BD4680BD000080B485B000AF7860D3
:10229C007B6893F83D30DBB2012B01D0012335E094
:1022AC007B68022283F83D207B681B68DA687B68B8
:1022BC001B6842F00102DA607B681B68164A934285
:1022CC0009D07B681B68B3F1804F04D07B681B6816
:1022DC00124A934211D17B681B689B6803F0070379
:1022EC00FB60FB68062B10D07B681B681A687B6848
:1022FC001B6842F001021A6007E07B681B681A68D1
:10230C007B681B6842F001021A60002318461437E0
:10231C00BD4680BC704700BF002C0140000400404B
:10232C0080B582B000AF78607B681B681B6903F0D6
:10233C000203022B22D17B681B68DB6803F00203CB
:10234C00022B1BD17B681B686FF002021A617B6841
:10235C0001221A777B681B689B6903F00303002B2F
:10236C0003D0786800F0B4F905E0786800F0A7F9BC
:10237C00786800F0B6F97B6800221A777B681B68D6
:10238C001B6903F00403042B22D17B681B68DB68F8
:10239C0003F00403042B1BD17B681B686FF0040251
:1023AC001A617B6802221A777B681B689B6903F4AD
:1023BC004073002B03D0786800F08AF905E0786848
:1023CC0000F07DF9786800F08CF97B6800221A77B0
:1023DC007B681B681B6903F00803082B22D17B6800
:1023EC001B68DB6803F00803082B1BD17B681B6898
:1023FC006FF008021A617B6804221A777B681B68ED
:10240C00DB6903F00303002B03D0786800F060F95C
:10241C0005E0786800F053F9786800F062F97B68A1
:10242C0000221A777B681B681B6903F01003102BC2
:10243C0022D17B681B68DB6803F01003102B1BD1C7
:10244C007B681B686FF010021A617B6808221A7790
:10245C007B681B68DB6903F44073002B03D078683E
:10246C0000F036F905E0786800F029F9786800F09A
:10247C0038F97B6800221A777B681B681B6903F0AC
:10248C000103012B0ED17B681B68DB6803F0010391
:10249C00012B07D17B681B686FF001021A61786809
:1024AC00FEF72EFE7B681B681B6903F08003802BF4
:1024BC000ED17B681B68DB6803F08003802B07D18F
:1024CC007B681B686FF080021A61786800F06BFA09
:1024DC007B681B681B6903F04003402B0ED17B68A3
:1024EC001B68DB6803F04003402B07D17B681B683B
:1024FC006FF040021A61786800F0FCF87B681B688A
:10250C001B6903F02003202B0ED17B681B68DB6852
:10251C0003F02003202B07D17B681B686FF020028F
:10252C001A61786800F036FA00BF0837BD4680BDE6
:10253C0080B584B000AF786039600023FB737B6892
:10254C0093F83C30012B01D10223B4E07B680122CB
:10255C0083F83C207B68022283F83D207B681B6853
:10256C009B68BB60BB6823F07703BB60BB6823F43C
:10257C007F43BB607B681B68BA689A603B681B68CA
:10258C00B3F5005F3ED0B3F5005F00F28780B3F582
:10259C00805F00F08680B3F5805F7FD8702B1AD0F7
:1025AC00702B7BD8602B50D0602B77D8502B3CD025
:1025BC00502B73D8402B58D0402B6FD8302B64D075
:1025CC00302B6BD8202B60D0202B67D8002B5CD005
:1025DC00102B5AD062E07B6818683B6899683B689E
:1025EC005A683B68DB6800F05EF97B681B689B6887
:1025FC00BB60BB6843F07703BB607B681B68BA6841
:10260C009A604FE07B6818683B6899683B685A6829
:10261C003B68DB6800F047F97B681B689A687B684D
:10262C001B6842F480429A603CE07B6818683B6807
:10263C0059683B68DB681A4600F0BEF87B681B687B
:10264C005021184600F015F92CE07B6818683B689F
:10265C0059683B68DB681A4600F0DCF87B681B683D
:10266C006021184600F005F91CE07B6818683B688F
:10267C0059683B68DB681A4600F09EF87B681B685B
:10268C004021184600F0F5F80CE07B681A683B68AE
:10269C001B681946104600F0ECF803E00123FB73AD
:1026AC0000E000BF7B68012283F83D207B6800229C
:1026BC0083F83C20FB7B18461037BD4680BD80B4A8
:1026CC0083B000AF786000BF0C37BD4680BC70474C
:1026DC0080B483B000AF786000BF0C37BD4680BCBF
:1026EC00704780B483B000AF786000BF0C37BD4634
:1026FC0080BC704780B483B000AF786000BF0C37EB
:10270C00BD4680BC7047000080B485B000AF7860D7
:10271C0039607B681B68FB607B68254A934207D055
:10272C007B68B3F1804F03D07B68224A934208D177
:10273C00FB6823F07003FB603B685B68FA6813432B
:10274C00FB607B681A4A934207D07B68B3F1804FD9
:10275C0003D07B68174A934208D1FB6823F440737B
:10276C00FB603B68DB68FA681343FB60FB6823F093
:10277C0080023B685B691343FB607B68FA681A60F4
:10278C003B689A687B68DA623B681A687B689A6275
:10279C007B68074A934203D13B681A697B681A63CA
:1027AC007B6801225A6100BF1437BD4680BC70475C
:1027BC00002C01400004004080B487B000AFF860EA
:1027CC00B9607A60FB681B6A7B61FB681B6A23F04B
:1027DC000102FB681A62FB689B693B613B6923F051
:1027EC00F0033B617B681B013A6913433B617B69D6
:1027FC0023F00A037B617A69BB6813437B61FB6836
:10280C003A699A61FB687A691A6200BF1C37BD4647
:10281C0080BC704780B487B000AFF860B9607A6054
:10282C00FB681B6A7B61FB681B6A23F01002FB6868
:10283C001A62FB689B693B613B6923F470433B6103
:10284C007B681B033A6913433B617B6923F0A0034C
:10285C007B61BB681B017A6913437B61FB683A6936
:10286C009A61FB687A691A6200BF1C37BD4680BC4E
:10287C00704780B485B000AF786039607B689B6826
:10288C00FB60FB6823F07003FB603A68FB68134342
:10289C0043F00703FB607B68FA689A6000BF14374B
:1028AC00BD4680BC704780B487B000AFF860B9609B
:1028BC007A603B60FB689B687B617B6923F47F4398
:1028CC007B613B681A027B681A43BB6813437A69C5
:1028DC0013437B61FB687A699A6000BF1C37BD4665
:1028EC0080BC704780B485B000AF786039607B687D
:1028FC0093F83C30012B01D1022341E07B6801228B
:10290C0083F83C207B68022283F83D207B681B689F
:10291C005B68FB607B681B689B68BB60FB6823F093
:10292C007003FB603B681B68FA681343FB607B68B1
:10293C001B68FA685A607B681B68144A934209D07A
:10294C007B681B68B3F1804F04D07B681B68104A0E
:10295C0093420CD1BB6823F08003BB603B685B687F
:10296C00BA681343BB607B681B68BA689A607B6863
:10297C00012283F83D207B68002283F83C20002351
:10298C0018461437BD4680BC704700BF002C014070
:10299C000004004080B483B000AF786000BF0C37F7
:1029AC00BD4680BC704780B483B000AF786000BF78
:1029BC000C37BD4680BC704770B500260C4D0D4CD5
:1029CC00641BA410A64209D100F022F800260A4D7F
:1029DC000A4C641BA410A64205D170BD55F8043BEB
:1029EC0098470136EEE755F8043B98470136F2E775
:1029FC00582A0008582A0008582A00085C2A00089F
:102A0C0003460244934200D1704703F8011BF9E7D7
:102A1C00F8B500BFF8BC08BC9E467047F8B500BFBF
:082A2C00F8BC08BC9E4670478F
:102A3400000000000000000001020304060708096A
:102A440002030405060708090A0B0C0D0E0F1010EB
:042A5400010200007B
:042A58003101000840
:042A5C000D01000860
:102A600002000400080000000008014000080140C6
:102A70000008014005000000020000000300000003
:102A80000000000001000000020000000300000040
:102A9000FFFFFFFF0024F400100000000100000011
:040000050800138D4F
:00000001FF
